{
  "contractName": "GustavoCoinCrowdsale",
  "abi": [
    {
      "constant": true,
      "inputs": [],
      "name": "hasClosed",
      "outputs": [
        {
          "name": "",
          "type": "bool"
        }
      ],
      "payable": false,
      "stateMutability": "view",
      "type": "function"
    },
    {
      "constant": true,
      "inputs": [],
      "name": "rate",
      "outputs": [
        {
          "name": "",
          "type": "uint256"
        }
      ],
      "payable": false,
      "stateMutability": "view",
      "type": "function"
    },
    {
      "constant": true,
      "inputs": [],
      "name": "weiRaised",
      "outputs": [
        {
          "name": "",
          "type": "uint256"
        }
      ],
      "payable": false,
      "stateMutability": "view",
      "type": "function"
    },
    {
      "constant": true,
      "inputs": [],
      "name": "closingTime",
      "outputs": [
        {
          "name": "",
          "type": "uint256"
        }
      ],
      "payable": false,
      "stateMutability": "view",
      "type": "function"
    },
    {
      "constant": true,
      "inputs": [],
      "name": "wallet",
      "outputs": [
        {
          "name": "",
          "type": "address"
        }
      ],
      "payable": false,
      "stateMutability": "view",
      "type": "function"
    },
    {
      "constant": true,
      "inputs": [],
      "name": "openingTime",
      "outputs": [
        {
          "name": "",
          "type": "uint256"
        }
      ],
      "payable": false,
      "stateMutability": "view",
      "type": "function"
    },
    {
      "constant": true,
      "inputs": [],
      "name": "owner_",
      "outputs": [
        {
          "name": "",
          "type": "address"
        }
      ],
      "payable": false,
      "stateMutability": "view",
      "type": "function"
    },
    {
      "constant": false,
      "inputs": [
        {
          "name": "_beneficiary",
          "type": "address"
        }
      ],
      "name": "buyTokens",
      "outputs": [],
      "payable": true,
      "stateMutability": "payable",
      "type": "function"
    },
    {
      "constant": true,
      "inputs": [],
      "name": "token",
      "outputs": [
        {
          "name": "",
          "type": "address"
        }
      ],
      "payable": false,
      "stateMutability": "view",
      "type": "function"
    },
    {
      "inputs": [
        {
          "name": "_openingTime",
          "type": "uint256"
        },
        {
          "name": "_closingTime",
          "type": "uint256"
        },
        {
          "name": "_rate",
          "type": "uint256"
        },
        {
          "name": "_wallet",
          "type": "address"
        },
        {
          "name": "_token",
          "type": "address"
        }
      ],
      "payable": false,
      "stateMutability": "nonpayable",
      "type": "constructor"
    },
    {
      "payable": true,
      "stateMutability": "payable",
      "type": "fallback"
    },
    {
      "anonymous": false,
      "inputs": [
        {
          "indexed": true,
          "name": "purchaser",
          "type": "address"
        },
        {
          "indexed": true,
          "name": "beneficiary",
          "type": "address"
        },
        {
          "indexed": false,
          "name": "value",
          "type": "uint256"
        },
        {
          "indexed": false,
          "name": "amount",
          "type": "uint256"
        }
      ],
      "name": "TokenPurchase",
      "type": "event"
    },
    {
      "constant": true,
      "inputs": [],
      "name": "timeToStartContract",
      "outputs": [
        {
          "name": "",
          "type": "uint256"
        }
      ],
      "payable": false,
      "stateMutability": "view",
      "type": "function"
    },
    {
      "constant": true,
      "inputs": [],
      "name": "timeToCloseContract",
      "outputs": [
        {
          "name": "",
          "type": "uint256"
        }
      ],
      "payable": false,
      "stateMutability": "view",
      "type": "function"
    },
    {
      "constant": true,
      "inputs": [],
      "name": "timeToPhase1Deadline",
      "outputs": [
        {
          "name": "",
          "type": "uint256"
        }
      ],
      "payable": false,
      "stateMutability": "view",
      "type": "function"
    },
    {
      "constant": true,
      "inputs": [],
      "name": "timeToPhase2Deadline",
      "outputs": [
        {
          "name": "",
          "type": "uint256"
        }
      ],
      "payable": false,
      "stateMutability": "view",
      "type": "function"
    }
  ],
  "bytecode": "0x608060405234801561001057600080fd5b5060405160a0806109da8339810180604052810190808051906020019092919080519060200190929190805190602001909291908051906020019092919080519060200190929190505050848484848460008311151561006f57600080fd5b600073ffffffffffffffffffffffffffffffffffffffff168273ffffffffffffffffffffffffffffffffffffffff16141515156100ab57600080fd5b600073ffffffffffffffffffffffffffffffffffffffff168173ffffffffffffffffffffffffffffffffffffffff16141515156100e757600080fd5b8260028190555081600160006101000a81548173ffffffffffffffffffffffffffffffffffffffff021916908373ffffffffffffffffffffffffffffffffffffffff160217905550806000806101000a81548173ffffffffffffffffffffffffffffffffffffffff021916908373ffffffffffffffffffffffffffffffffffffffff16021790555050505042821015151561018157600080fd5b81811015151561019057600080fd5b8160048190555080600581905550505033600660006101000a81548173ffffffffffffffffffffffffffffffffffffffff021916908373ffffffffffffffffffffffffffffffffffffffff160217905550603c8401600781905550603c6007540160088190555050505050506107cf8061020b6000396000f3006080604052600436106100c5576000357c0100000000000000000000000000000000000000000000000000000000900463ffffffff1680631515bc2b146100d057806325093b7d146100ff5780632864532c1461012a5780632c4e722e146101555780634042b66f146101805780634b6753bc146101ab578063521eb273146101d65780635c56303d1461022d578063b7a8807c14610258578063e3dad52514610283578063e7663079146102ae578063ec8ac4d814610305578063fc0c546a1461033b575b6100ce33610392565b005b3480156100dc57600080fd5b506100e5610460565b604051808215151515815260200191505060405180910390f35b34801561010b57600080fd5b5061011461046c565b6040518082815260200191505060405180910390f35b34801561013657600080fd5b5061013f610478565b6040518082815260200191505060405180910390f35b34801561016157600080fd5b5061016a610484565b6040518082815260200191505060405180910390f35b34801561018c57600080fd5b5061019561048a565b6040518082815260200191505060405180910390f35b3480156101b757600080fd5b506101c0610490565b6040518082815260200191505060405180910390f35b3480156101e257600080fd5b506101eb610496565b604051808273ffffffffffffffffffffffffffffffffffffffff1673ffffffffffffffffffffffffffffffffffffffff16815260200191505060405180910390f35b34801561023957600080fd5b506102426104bc565b6040518082815260200191505060405180910390f35b34801561026457600080fd5b5061026d6104c8565b6040518082815260200191505060405180910390f35b34801561028f57600080fd5b506102986104ce565b6040518082815260200191505060405180910390f35b3480156102ba57600080fd5b506102c36104da565b604051808273ffffffffffffffffffffffffffffffffffffffff1673ffffffffffffffffffffffffffffffffffffffff16815260200191505060405180910390f35b610339600480360381019080803573ffffffffffffffffffffffffffffffffffffffff169060200190929190505050610392565b005b34801561034757600080fd5b50610350610500565b604051808273ffffffffffffffffffffffffffffffffffffffff1673ffffffffffffffffffffffffffffffffffffffff16815260200191505060405180910390f35b6000803491506103a28383610525565b6103ab82610552565b90506103c28260035461057090919063ffffffff16565b6003819055506103d2838261058c565b8273ffffffffffffffffffffffffffffffffffffffff163373ffffffffffffffffffffffffffffffffffffffff167f623b3804fa71d67900d064613da8f94b9617215ee90799290593e1745087ad188484604051808381526020018281526020019250505060405180910390a3610449838361059a565b61045161059e565b61045b8383610609565b505050565b60006005544211905090565b60004260075403905090565b60004260085403905090565b60025481565b60035481565b60055481565b600160009054906101000a900473ffffffffffffffffffffffffffffffffffffffff1681565b60004260055403905090565b60045481565b60004260045403905090565b600660009054906101000a900473ffffffffffffffffffffffffffffffffffffffff1681565b6000809054906101000a900473ffffffffffffffffffffffffffffffffffffffff1681565b600454421015801561053957506005544211155b151561054457600080fd5b61054e828261060d565b5050565b60006105696002548361065d90919063ffffffff16565b9050919050565b6000818301905082811015151561058357fe5b80905092915050565b6105968282610695565b5050565b5050565b600160009054906101000a900473ffffffffffffffffffffffffffffffffffffffff1673ffffffffffffffffffffffffffffffffffffffff166108fc349081150290604051600060405180830381858888f19350505050158015610606573d6000803e3d6000fd5b50565b5050565b600073ffffffffffffffffffffffffffffffffffffffff168273ffffffffffffffffffffffffffffffffffffffff161415151561064957600080fd5b6000811415151561065957600080fd5b5050565b600080831415610670576000905061068f565b818302905081838281151561068157fe5b0414151561068b57fe5b8090505b92915050565b6000809054906101000a900473ffffffffffffffffffffffffffffffffffffffff1673ffffffffffffffffffffffffffffffffffffffff166340c10f1983836040518363ffffffff167c0100000000000000000000000000000000000000000000000000000000028152600401808373ffffffffffffffffffffffffffffffffffffffff1673ffffffffffffffffffffffffffffffffffffffff16815260200182815260200192505050602060405180830381600087803b15801561075957600080fd5b505af115801561076d573d6000803e3d6000fd5b505050506040513d602081101561078357600080fd5b8101908080519060200190929190505050151561079f57600080fd5b50505600a165627a7a72305820cbbf839c1460bccdb7c23e705e517cf640f76157d528e18dd87e8bccc414159c0029",
  "source": "pragma solidity 0.4.24;\n\nimport './GustavoCoin.sol';\nimport 'openzeppelin-solidity/contracts/crowdsale/emission/MintedCrowdsale.sol';\nimport 'openzeppelin-solidity/contracts/crowdsale/validation/TimedCrowdsale.sol';\n\n\ncontract GustavoCoinCrowdsale is TimedCrowdsale, MintedCrowdsale {\n    address public owner_;\n    uint phase1deadline;\n    uint phase2deadline;\n    function GustavoCoinCrowdsale\n        (\n            uint256 _openingTime,\n            uint256 _closingTime,\n            uint256 _rate,\n            address _wallet,\n            MintableToken _token\n        )\n        public\n        Crowdsale(_rate, _wallet, _token)\n        TimedCrowdsale(_openingTime, _closingTime) {\n          owner_ = msg.sender;\n          phase1deadline = _closingTime + 1 minutes;\n          phase2deadline = phase1deadline + 1 minutes;\n        }\n\n//this is where my code starts\n//this function to get the time to start the funding. it will be accessed by web3 instance\n    function timeToStartContract() public view returns (uint){\n      return openingTime - now;\n    }\n//this function to get the time to close the funding. it will be accessed by web3 instance\n    function timeToCloseContract() public view returns (uint){\n      return closingTime - now;\n    }\n//this function to get the time to close the phase 1 period. it will be accessed by web3 instance\n    function timeToPhase1Deadline() public view returns (uint){\n      return phase1deadline - now;\n    }\n//this function to get the time to close the phase 2 period. it will be accessed by web3 instance\n    function timeToPhase2Deadline() public view returns (uint){\n      return phase2deadline - now;\n    }\n}\n",
  "sourcePath": "/Users/ahmedalmutawa/ethereum/EventCrowd/contracts/GustavoCoinCrowdsale.sol",
  "compiler": {
    "name": "solc",
    "version": "0.4.24+commit.e67f0147.Emscripten.clang"
  },
  "schemaVersion": "2.0.0",
  "updatedAt": "2018-07-30T13:46:16.668Z"
}